:020000040000FA
:1000000020200020850200008D0200008F020000E9
:100010009102000093020000950200000000000021
:100020000000000000000000000000009702000037
:1000300099020000000000009B020000193C000033
:100040009F020000A1020000A3020000A502000020
:10005000A7020000A9020000AB020000AD020000F0
:10006000AF020000B1020000B3020000B5020000C0
:10007000B7020000B9020000BB020000BD02000090
:10008000BF020000C1020000C3020000C502000060
:10009000C7020000C9020000CB020000CD02000030
:1000A000CF020000D1020000D3020000D502000000
:1000B000D7020000D9020000DB020000DD020000D0
:1000C000DF020000E1020000E3020000E5020000A0
:1000D000E7020000E9020000EB020000ED02000070
:1000E000EF020000F102000000000000F302000037
:1000F000F5020000F7020000F9020000FB02000018
:10010000FD020000FF0200000103000003030000E5
:1001100000000000000000000503000007030000CD
:10012000090300000B0300000D0300000F03000093
:100130001103000013030000150300001703000063
:1001400000000000000000000000000000000000AF
:10015000190300001B0300001D0300001F03000023
:10016000000000000000000000000000000000008F
:10017000000000000000000000000000000000007F
:10018000000000000000000000000000000000006F
:10019000000000000000000000000000000000005F
:1001A000000000000000000000000000000000004F
:1001B00021030000230300002503000027030000A3
:1001C000290300002B0300002D0300002F03000073
:1001D0003103000033030000350300003703000043
:1001E000390300003B0300003D0300000000000055
:1001F000000000003F030000410300004303000033
:10020000450300004703000000000000000000005C
:10021000490300004B0300004D0300004F030000A2
:100220005103000053030000550300005703000072
:10023000590300005B0300005D0300005F03000042
:100240006103000063030000650300006703000012
:10025000690300006B0300006D0300006F030000E2
:10026000710300007303000075030000DFF810D075
:1002700000F0C0FB00480047B1600000AFF3008011
:10028000202000203C4880473C480047FEE7FEE72E
:10029000FEE7FEE7FEE7FEE7FEE7FEE7FEE7FEE736
:1002A000FEE7FEE7FEE7FEE7FEE7FEE7FEE7FEE726
:1002B000FEE7FEE7FEE7FEE7FEE7FEE7FEE7FEE716
:1002C000FEE7FEE7FEE7FEE7FEE7FEE7FEE7FEE706
:1002D000FEE7FEE7FEE7FEE7FEE7FEE7FEE7FEE7F6
:1002E000FEE7FEE7FEE7FEE7FEE7FEE7FEE7FEE7E6
:1002F000FEE7FEE7FEE7FEE7FEE7FEE7FEE7FEE7D6
:10030000FEE7FEE7FEE7FEE7FEE7FEE7FEE7FEE7C5
:10031000FEE7FEE7FEE7FEE7FEE7FEE7FEE7FEE7B5
:10032000FEE7FEE7FEE7FEE7FEE7FEE7FEE7FEE7A5
:10033000FEE7FEE7FEE7FEE7FEE7FEE7FEE7FEE795
:10034000FEE7FEE7FEE7FEE7FEE7FEE7FEE7FEE785
:10035000FEE7FEE7FEE7FEE7FEE7FEE7FEE7FEE775
:10036000FEE7FEE7FEE7FEE7FEE7FEE7FEE7FEE765
:10037000FEE7FEE7FEE70000693C00006D020000BA
:100380002DE9FE4F804681EA0300C00F0C46009025
:1003900021F0004123F00045B8EB0200A94105D24D
:1003A0004046214690461C460B46024623F000403C
:1003B000104347D0270DC7F30A00C3F30A51029038
:1003C000401A019040286BDAC3F3130040F4801BFD
:1003D0000098924620B10023D2EB030A63EB0B0B8B
:1003E00001985946C0F14002504600F0EDF906462A
:1003F0000D4650465946019A00F005FA10EB0800E8
:100400006141002487EA115284EAE7731A4340D01D
:10041000009A62B3019A012A4FEA075215DC001BC9
:1004200061EB02014FF0004202EA0752CDE90042BF
:10043000001C41F5801132462B4600F03CFA03B017
:10044000BDE8F08F40462146F9E7001B61EB020151
:10045000001C41F5801300185B412018A2F500171D
:1004600047EB030140EAD570B6196D4111E06D0804
:100470004FEA360645EAC0754FEA0752001B61EBAA
:100480000201001C41F5801149084FEA30000019B3
:10049000514132462B4603B0BDE8F04F00F0FCB9A5
:1004A0000098012240000023D0EB020263EBE073CE
:1004B000009821464FEAE074B8EB000061EB0401BC
:1004C000E9E783F000435BE781F0004158E72DE95D
:1004D000FE4F81EA030404F0004421F0004100943F
:1004E0004FF0000B23F0004350EA01045ED052EAC3
:1004F00003045BD0C3F30A54C1F30A552C44A4F29D
:10050000F3340194A0FB0254C1F3130141F48011B0
:10051000C3F3130343F4801301FB024400FB034EB7
:10052000840A970A44EA815447EA8357A4FB076880
:1005300002958D0A05FB07854FEA932C04FB0C54AA
:100540002705029D4FEA065847EA1637B5EB08051E
:100550006EEB070C870E920E47EA811742EA831270
:10056000A7FB0201B6EB0B0164EB00042B0D43EA81
:100570000C335E1844EB1C50DA465146E7FB02018F
:10058000C5F313044FEA0B3343EA14534FEA043222
:10059000019C43EA0603A4F10C040294009CCDE9FB
:1005A00000B400F088F903B0BDE8F08F00200146E8
:1005B000F9E72DE9F04D81EA030404F0004B21F046
:1005C000004514464FF0000A23F0004150EA0502AE
:1005D00020D054EA01021DD0C5F30A570246C5F3E4
:1005E0001303C1F31300C1F30A5640F4801543F41A
:1005F0008013A7EB0608101BD64608F2FD3873EBF4
:10060000050002D308F1010801E092185B41B8F13E
:10061000000F03DA00200146BDE8F08D00204FF402
:100620008011064684460EE0171B73EB050705D3C1
:10063000121B63EB050306434CEA010C49084FEA21
:10064000300092185B4150EA0107EDD152EA0300F5
:1006500012D082EA040083EA0501084305D0101B8A
:10066000AB4106D20122002306E000224FF00043F6
:1006700002E06FF0010253101AEB06004CEB085138
:1006800010EB0A0041EB0B01BDE8F04D00F004B99E
:100690000EB5C10F80EAE0700844CA07002140F29D
:1006A00033438DE80E000A460B4600F004F903B010
:1006B00000BD0EB540F2334102910021CDE9001199
:1006C0000A460B4600F0F7F803B000BD70B5C1F361
:1006D0000A5201F000450024C1F3130140F2FF3338
:1006E00041F480119A4201DA002070BD40F2334398
:1006F0009A42A2F2334203DC524200F074F800E066
:1007000090402C43F1D0404270BD00F0004230F0E8
:1007100000400AD0C10D01F56071C0F3160042EA35
:100720000151C2084007114370470020014670473D
:1007300030B5041E71F1000404DB4FF00044404268
:1007400064EB0101141E73F1000405DB1C464FF03D
:100750000043524263EB04038B4208BF824230BD28
:1007600030B5041E71F1000404DB4FF00044404238
:1007700064EB0101141E73F1000405DB1C464FF00D
:100780000043524263EB0403994208BF904230BDDC
:1007900001F0004330B421F0004150EA010206D0DC
:1007A0000A0DA2F56072C1F31301002A02DC30BC0D
:1007B00000207047440F44EAC104C100E01830BC77
:1007C00000EBC25000F031B8202A04DB203A00FAD6
:1007D00002F1002070479140C2F1200320FA03F398
:1007E000194390407047202A04DB203A21FA02F096
:1007F0000021704721FA02F3D040C2F1200291405B
:10080000084319467047202A06DBCB17203A41FAE5
:1008100002F043EAE07306E041FA02F3D040C2F18D
:10082000200291400843194670470029A8BF70472D
:10083000401C490008BF20F00100704710B4B0FA16
:1008400080FC00FA0CF050EA010404BF10BC7047B1
:1008500049B1CCF1200421FA04F411FA0CF118BFCB
:10086000012121430843A3EB0C01CB1D4FEA00619A
:100870004FEA102042BF002010BC704700EBC3506D
:1008800010440029A4BF10BC7047401C490008BF99
:1008900020F0010010BC704710B5141E73F1000465
:1008A00008DA401C41F1000192185B411A4301D162
:1008B00020F0010010BD2DE9F04D92469B4611B18C
:1008C000B1FA81F202E0B0FA80F220329046FFF7EE
:1008D0007BFF04460F4640EA0A0041EA0B015346FB
:1008E0005A46084313D0114653EA010019D0C8F103
:1008F00040025046FFF777FF05460E4650465946E0
:100900004246FFF761FF084305D0012004E020467E
:100910003946BDE8F08D0020054346EAE0762C43D9
:1009200037430A986305E40AA0EB08000022FD0A99
:1009300044EA47540A3002D500200146E9E70105A0
:1009400010196941DDE9084500196941BDE8F04D1C
:10095000A2E72DE9F04D00231A461B1A8A4103DB5A
:1009600000200146BDE8F08DC1F30A52C1F3130126
:1009700041F480154FF0000BD10702D100186D41F2
:10098000521E0027044640F2FF11384601EB620A6E
:100990003E468046024600204FF48011FFF723FFB9
:1009A000C2197141BB1846EB0100B4EB030C75EBA7
:1009B000000C04D3E41A65EB000517460E46241913
:1009C00008F101006D4180463428E3DDF91946EB5A
:1009D0000600091BA84103D24FF0FF32134601E085
:1009E000002213461BEB070046EB0A51BDE8F04D11
:1009F000FFF752BF064C074D06E0E06840F00103E8
:100A000094E8070098471034AC42F6D3FFF732FC65
:100A1000306600005066000070B58C1810F8015B5D
:100A200015F0070301D110F8013B2A1106D110F887
:100A3000012B03E010F8016B01F8016B5B1EF9D18B
:100A40002B0705D40023521E0DD401F8013BFAE711
:100A500010F8013BCB1A921C03E013F8015B01F87C
:100A6000015B521EF9D5A142D8D3002070BD000011
:100A700010B54FF08070406A002102690548904728
:100A80004FF08070406A044A00210368014898478B
:100A900010BD000000800340B001002070B5164C6E
:100AA0002368DFF858C003EA0C05154BA5F1805602
:100AB000B6F5A0260AD0246804EA0C0CACF18054E8
:100AC000B4F5202418BF002406D00CE0984218BFCB
:100AD00001F1400407D104E0984218BF01F13E043F
:100AE00001D101F11E041146204602F0ADFA204664
:100AF000BDE8704002F076BA00E00F400000FF70E1
:100B000000800340FF20344981F84E0064213248C0
:100B1000A0F850100121A0F85210FF202E4981F8B2
:100B2000800114212C48A0F882110021A0F8841122
:100B3000FF20294981F8200100212748A0F822112F
:100B4000A0F82411FF20244981F832010021224815
:100B5000A0F83411A0F83611FF201F4981F83801A0
:100B600000211D48A0F83A11A0F83C11FF201A49B5
:100B700081F8860100211848A0F88811A0F88A1190
:100B8000FF20154981F8400500211348A0F84215BF
:100B9000A0F84415FF20104981F84C0500210E48AB
:100BA000A0F84E15A0F85015FF200B4981F8A605B6
:100BB00064210948A0F8A8150221A0F8AA15FF2071
:100BC000054981F8AC0514210348A0F8AE150221AF
:100BD000A0F8B01570470000A00600202DE9F041F4
:100BE00004460D4600260027E178A81F814201D067
:100BF000BDE8F081002006E0215C3144CEB2B91995
:100C0000CFB2411CC8B2A91E8142F5DC601910F8B0
:100C1000020CB04204D1601910F8010CB84200D0A7
:100C2000E6E72078AA2805D16078612803D06078AB
:100C3000FF2800D0DCE7A078202811D1A0886149E6
:100C40000880E0884880208988806089C880A089E1
:100C50000881E0894881208A8881608AC881AEE065
:100C6000A0780F280DD1207940B2574908706079DB
:100C700040B24870A07940B28870E07940B2C87044
:100C80009DE0A07806280CD1207950494870607901
:100C9000C870A0790871E1794C484171217A81715D
:100CA0008DE0A07807280AD1002005E0211D095C0D
:100CB000474A1154411CC8B20628F7DB7FE0A078F0
:100CC00003280AD1002005E0211D095C414A115486
:100CD000411CC8B20728F7DB71E0A07803280AD1CD
:100CE000002005E0211D095C3B4A1154411CC8B29B
:100CF0000928F7DB63E0A078012860D0A078E0281D
:100D00001ED12079012806D0022805D0102804D051
:100D1000112804D102E003E002E001E000E000BF9E
:100D200000BF20792D4981F80C06084680F80D6631
:100D300080F80E7600F20C61AF2000F091FC3EE0EE
:100D4000A078B0B9254890F80F062179884236D1AD
:100D5000224890F810066179884230D11F4890F8F7
:100D60001106A17988422AD100201C4981F8000689
:100D700025E0A078E12811D12179607901EB0020EC
:100D80001FFA80F81548A0F814860021C0F818163C
:100D900000F21461FF2002F085FC10E0A078E22848
:100DA0000DD120790D4981F80C06084680F80D66B2
:100DB00080F80E7600F20C61FF2000F051FC00BFBD
:100DC00016E70000CA0D0020B4010020240E002008
:100DD000B3000020AC000020DA0D0020A0060020A7
:100DE00010B504463F48007838B9AA2C05D1012037
:100DF0003C4908703C48047072E03A480078012889
:100E000009D1612C01D0FF2C05D102203549087091
:100E10003548447064E033480078022805D1032047
:100E200030490870304884705AE02E480078032812
:100E30000CD1FA2C0ADA04202A4908702A48C47016
:100E40002A48047000202A49087049E025480078A3
:100E5000042819D125480078002815DD234800789A
:100E6000401E224908702248007821490978491C0F
:100E70001F4A1170001D1C490C541C48007858BBB7
:100E80000520184908702BE01648007805280DD178
:100E90000620144908701648007815490978491C3D
:100EA000134A1170001D10490C5419E00D480078C8
:100EB000062812D100200B4908700D480078001D4B
:100EC00009490C540A480078401D0A490870084630
:100ED00001780548FFF782FE02E000200149087012
:100EE00010BD0000A6000020BC0C0020A4000020C3
:100EF000A5000020A200002070B504460D4629463A
:100F0000204601F0A9FC70BD10B52DED028BB0EEAE
:100F1000408A00F0ADFB302000F0ECFB332000F005
:100F2000E9FB342000F0E6FB402000F0E3FB412029
:100F300000F0E0FBE02000F0DDFBE22000F0DAFB57
:100F40000D2000F0D7FBF12000F0D4FBF22000F0E0
:100F5000D1FBBDEC028B10BD10B523480088401CAE
:100F600021490880084600880A2190FBF1F201FB24
:100F700012001D4908800846008810BB9FED1B0A1F
:100F800000F0D6FE9FED190A02F0D8FB9FED170A7C
:100F900002F0B6F99FED150A00F0ACF9124840884E
:100FA000401C11494880084640880A2190FBF1F214
:100FB00001FB12000C4948800846408808B900F03F
:100FC0003DFB01F085FC012001F06AFE9FED080A5F
:100FD00002F066F99FED060AFFF796FF012001F087
:100FE000FDFC02F0B1F810BDC20000200AD7233C7E
:100FF0006F12833A7CB50346402B65D00BDC302B57
:1010000039D003DCA3B10D2B78D127E0332B3FD0AF
:10101000342BF9D14AE0E22B71D004DC412B60D0B3
:10102000E02BF1D16DE0F12B6AD0F22BECD1FCE09A
:101030008F4890F80C460D78681C087054558C4801
:1010400090F80D460D78681C08705455884890F843
:101050000E460D78681C0870545506E1002007E024
:10106000844C255C0E78741C0C709555441CE0B2C1
:101070000428F5DBF9E0002007E07F4C255C0E78C2
:10108000741C0C709555441CE0B21728F5DBECE09D
:10109000002008E0784C193C255C0E78741C0C701C
:1010A0009555441CE0B20628F4DBDEE0002008E0A1
:1010B000714CE41F255C0E78741C0C709555441C13
:1010C000E0B20728F4DBD0E0002007E06B4C255CA1
:1010D0000E78741C0C709555441CE0B21428F5DB96
:1010E000C3E0002007E0664C255C0E78741C0C7091
:1010F0009555441CE0B20E28F5DBB6E0B4E014E0F0
:1011000041E05B4890F801460D78681C0870545522
:10111000002007E05B4C255C0E78741C0C70955524
:10112000441CE0B20A28F5DB9FE05148B0F81406F1
:1011300000B201909DF804400D78681C0870545569
:101140009DF805400D78681C087054554848D0F843
:10115000180600909DF800400D78681C08705455E2
:101160009DF801400D78681C087054559DF80240A8
:101170000D78681C087054559DF803400D78681C64
:101180000870545571E04048006900909DF8004097
:101190000D78681C087054559DF801400D78681C46
:1011A000087054559DF802400D78681C087054551D
:1011B0009DF803400D78681C08705455324840690A
:1011C00000909DF800400D78681C087054559DF8FB
:1011D00001400D78681C087054559DF802400D7848
:1011E000681C087054559DF803400D78681C087001
:1011F00054552548806900909DF800400D78681C82
:10120000087054559DF801400D78681C08705455BD
:101210009DF802400D78681C087054559DF80340F5
:101220000D78681C087054551FE01848808A01909A
:101230009DF804400D78681C087054559DF80540D1
:101240000D78681C087054551048C08A01909DF8AC
:1012500004400D78681C087054559DF805400D78C1
:10126000681C0870545500E000BF00BF7CBD000042
:10127000A0060020A80000200D0E00206A0E00200D
:10128000BC0D0020A20C00207C0F00209C0E002032
:1012900010B500F0B3FF642002F050F901F05CFBE0
:1012A00000F0CEFB642002F049F9114801F0B0F8DB
:1012B0004FF4612001F03AF90D4801F0C5F90C48EE
:1012C00001F050FA642002F039F900F025FD00F039
:1012D00059FA642002F032F9FFF714FC4FF4487019
:1012E00002F02CF901F00EFE00F0B0FF012010BD5D
:1012F00020A1070008B52C48D0ED000A9FED2B1A5D
:10130000F4EEC10AF1EE10FA0BD2D0ED000AB7EEFE
:10131000001A70EE810AC0ED000A0120244988708D
:1013200002E00020224988701F48D0ED010A9FED9D
:101330001F1AF4EEC10AF1EE10FA0BD2D0ED010A39
:10134000B7EE001A70EE810AC0ED010A01208DF897
:10135000000002E000208DF800001348D0ED020AE2
:101360009FED121AF4EEC10AF1EE10FA0BD2D0ED95
:10137000020AB7EE001A70EE810AC0ED020A0120DF
:101380008DF8010002E000208DF801009DF80000BA
:1013900030B19DF8010018B101200549C87002E084
:1013A00000200349C87008BD0C0F00200000FA435C
:1013B0009C0E002030B500220024C5788B1F9D4272
:1013C00000D030BD002306E0C55C1544EAB2A51884
:1013D000ECB25D1CEBB28D1E9D42F5DC431813F898
:1013E000023C934204D1431813F8013CA34200D0BD
:1013F000E7E78378512B38D103795BB94379484DBE
:101400006B7183795BB2AB71C3795BB2EB71037AB9
:101410002B7183E00379012B12D14379404D2B725C
:10142000C3886B810389AB81837A2B719FED3D0A61
:101430003D4B83ED010A2B461B785B1C2B706DE046
:101440000379022B6AD14379354DAB73C3882B8264
:1014500003896B824389AB828389EB82C3892B83A7
:10146000038A6B83837C2B7158E08378342B0DD1F6
:10147000D0F807302A4DEB619FED2A0A2A4B83ED05
:10148000020A2B465B785B1C6B7047E08378012B6C
:101490000DD18388224D2B86C3886B860389AB864A
:1014A0004389EB8683892B87C3896B8736E08378F2
:1014B000042B33D1B0F9043000EE103AB8EEC00A74
:1014C000DFED1A0A20EE200A154B83ED080AB0F969
:1014D000063000EE103AB8EEC00ADFED140A20EE36
:1014E000200A0F4B83ED090AB0F9083000EE103ADC
:1014F000B8EEC00ADFED0D0A20EE200A084B83ED9E
:101500000A0AB0F90A3000EE103AB8EEC00ADFED70
:10151000070A20EE200A024B83ED0B0A00BF50E7BA
:101520009C0E0020000000000C0F002017B7D138DF
:1015300010B504463D48007838B9AA2C05D10120E1
:101540003A4908703A4804706FE03848007801283A
:1015500009D1612C01D0FF2C05D10220334908703C
:101560003348447061E031480078022805D10320F7
:101570002E4908702E48847057E02C4800780328C4
:101580000CD1FA2C0ADA0420284908702848C470C3
:101590002848047000202849087046E02348007855
:1015A000042819D123480078002815DD2148007847
:1015B000401E20490870204800781F490978491CBE
:1015C0001D4A1170001D1A490C541A48007840BB7E
:1015D00005201649087028E01448007805280DD128
:1015E0000620124908701448007813490978491CEC
:1015F000114A1170001D0E490C5416E00B4800787A
:1016000006280FD10020094908700B480078001DFA
:1016100007490C5408480078401DC1B20448FFF740
:10162000C9FE02E000200149087010BDE900002059
:10163000D80E0020E7000020E800002010B501F0DF
:1016400053F9DFED050A20EE200ABCEEC00A10EEC9
:10165000100A0249088010BD0000C842A8000020FE
:10166000024A10700122014B5A707047A0060020F8
:10167000164890F80006012821D115480078322834
:1016800005DA13480078401C114908701CE000205E
:101690000F4908700F480078401C0E490870084632
:1016A0000078052804DA0121084880F841150BE08C
:1016B000002008490870054981F8000604E0002070
:1016C000034908700349087070470000A006002015
:1016D000A7000020A3000020054A82F8400501234E
:1016E00082F841350122024B83F800267047000042
:1016F000A006002010B5044604EB4400204901EB8D
:101700004000408828B304EB440001EB400080888F
:1017100004EB44011A4A02EB4101498888420CDA81
:1017200004EB4400114601EB40008088401C04EBB0
:10173000440102EB410188800BE0012004EB4401ED
:101740000F4A02EB4101888004EB440102EB4101A6
:10175000487004EB44000A4901EB4000407868B14E
:10176000002004EB4401064A02EB4101487004EBFF
:10177000440002EB4001204601F02EFA10BD0000AB
:10178000A006002010B54FF08070406C816926489B
:1017900088474FF08070406C81692448884700BFBB
:1017A0004FF08070406CD0F88C101F48884700289C
:1017B000F6D04FF08070006A0821C26D1C48904737
:1017C0004FF08070406A00231A461946C4691948D0
:1017D000A0474FF08070406A602300221146046ADF
:1017E0001448A047144A00211248FFF757F94FF058
:1017F0008070806CD02182691E2090474FF08070ED
:10180000406A002182680B4890474FF08070406A20
:1018100000214269074890474FF08070406A0021DC
:1018200002690448904710BD003800F0040800F039
:101830000040024000800340710A000010B50446D9
:1018400004F0010040B14FF08070006A022211469E
:1018500003682548984707E04FF08070006A00222F
:10186000022103682048984704F0020040B14FF07D
:101870008070006A0122114603681B48984707E000
:101880004FF08070006A00220121036816489847D3
:1018900004F0040048B14FF08070006A4022114605
:1018A00003684FF04020984708E04FF08070006ACE
:1018B0000022402103684FF04020984704F00800C0
:1018C00040B14FF08070006A002210210368074881
:1018D000984707E04FF08070006A102211460368B5
:1018E0000248984710BD00000070004000500240C0
:1018F0001FB5044600201DE034F91010B1F57A7FC1
:1019000003DB40F2E73124F8101034F9101000EE38
:10191000101AF8EEC00A9FED2E0AB7EE041A01EE77
:10192000200ABCEEC00A10EE101A89B22DF8101071
:10193000411CC8B20828DFDBBDF800204FF08070E2
:10194000006B4021036823489847BDF802204FF000
:101950008070006B412103681E489847BDF8042041
:101960004FF08070006B822103681A489847BDF8D9
:1019700006204FF08070006B83210368154898475C
:10198000BDF808204FF08070006BC4210368124836
:101990009847BDF80A204FF08070006BC52103689E
:1019A0000D489847BDF80C204FF08070006B4FF445
:1019B0008371036808489847BDF80E204FF0807087
:1019C000006B40F207110368034898471FBD0000F1
:1019D00000409C44008002400090024040F6C41148
:1019E000884203DD14490978032903DC1249097888
:1019F0000A290DD10021104A11701049B1F84E107A
:101A0000491C0E4AA2F84E10012182F8501012E033
:101A1000B0F5967F0FDD40F6B83188420BDA02B29E
:101A20000649891C044B1B7821F8132002490978C8
:101A3000491C014A11707047D4000020300E00206C
:101A40001FB54FF08070406C8169A44888474FF003
:101A50008070406C8169A148401C88474FF08070BD
:101A6000406C81699E4888474FF08070406C816966
:101A70009B48401C88474FF08070406C81699848B3
:101A8000401D88474FF08070406C416E4FF4D0107D
:101A900088474FF08070406CD0F88810022088474B
:101AA0004FF08070006A816E8E4888474FF08070DA
:101AB000006A816E8C4888474FF08070006A816EA2
:101AC0008A4888474FF08070006A816E884888474E
:101AD0004FF08070006A4021426C864890474FF07A
:101AE0008070006A8021426C824890474FF080707D
:101AF000006A1021426C7F4890474FF08070006A66
:101B00002021426C7B4890477B487C49086001203B
:101B1000091D08600020091F08604FF08070006AEE
:101B2000816E4FF0051088474FF08070006A816E1B
:101B3000734888474FF08070006A816E714888470B
:101B40004FF08070006A816E6F4888474FF0807058
:101B5000006A0121426C6D4890474FF08070006A26
:101B60000221426C694890474FF08070006A04215E
:101B7000426C664890474FF08070006A0821426CC2
:101B8000624890474FF08070006A816E41F60540D0
:101B900088474FF08070006A8021426C4FF04020EF
:101BA00090474FF08070006B0022402143685848F6
:101BB00098474FF08070006B0022802143685448A2
:101BC00098474FF08070006B022280214368514893
:101BD00098474FF08070006B0022C02143684D4849
:101BE00098474FF08070006B00224FF4807143687B
:101BF000484898474FF08070006B40F635424021CE
:101C00008368434898474FF08070006B40F6354238
:101C1000802183683E4898474FF08070006B40F603
:101C20003542802183683B4898474FF08070006BB5
:101C300040F63542C0218368364898474FF080709F
:101C4000006B40F635424FF4807183683148984705
:101C50004FF08070006B402102692D4890474FF093
:101C60008070006B80210269294890474FF0807096
:101C7000006B80210269274890474FF08070006B0D
:101C8000C0210269234890474FF08070006B4FF4E9
:101C9000807102691F4890474FF08070006B0122ED
:101CA0000F21C36A1A4898474FF08070006B0122D9
:101CB000F021C36A174898474FF08070006B0122EB
:101CC0000821C36A134898470020009001900290B1
:101CD00003906846FFF70CFE1FBD0000004000F0B7
:101CE000000800F004180100041C010004100100A9
:101CF00004140100005000404B434F4C205502405B
:101D00000504050005080500050C0500005002400B
:101D1000008002400090024010B500F085F80120DC
:101D2000024981F8380081F8390010BD300E0020DA
:101D300010B52DED020B684604F0DEF9364890F838
:101D40003800002854D13448007801280DD10020F3
:101D500008E03149891C31F81020383121F8102071
:101D6000411CC8B20A28F4DB22E02B480078022884
:101D70001ED100201AE02849143131F91010A1F5C4
:101D8000806100EE101AF8EEC00A9FED240A9FED64
:101D9000241A01EE200ABDEEC00A10EE101A0AB293
:101DA0001D493A3121F81020411CC8B20A28E2DB53
:101DB0001948B0F94200B0F5966F05DD1648B0F944
:101DC0004200B0F5AF6F0BDB1348B0F94200B0F53D
:101DD000C86F09DD1048B0F94200B0F5E16F03DAD1
:101DE00001201049087011E000200E4908700DE034
:101DF00001200C490870002006E0002206493A3113
:101E000021F81020411CC8B20A28F6DB05480078EA
:101E1000014981F839001CBD300E00200080BB4410
:101E20002FDD243FE600002010B54FF08070406C9D
:101E300081692B4888474FF08070406C8169294840
:101E400088474FF08070006A4021026D2648904715
:101E50004FF08070006A816E244888474FF0807090
:101E6000C06B2349C268234890474FF08070C06B15
:101E70000022FF2183691F4898474FF08070C06B94
:101E80004FF6FF72FF21836B1A4898474FF080701E
:101E9000C06BFF221146836A16489847164AFF21F5
:101EA000144801F039FF4FF08070806CD0218269B6
:101EB000702090474FF08070C06B0421C26C0D48B9
:101EC00090474FF08070C06BFF21426809489047EF
:101ED0004FF08070806C01687020884710BD000052
:101EE000020800F0015C00F00060004007180200EA
:101EF0001700000400700340B936000070B54FF0C1
:101F00008070406C8169244888474FF08070406C35
:101F10008169224888474FF08070006A816E2048AE
:101F200088474FF08070006A4021426D1D489047FD
:101F300001F0C8FD05464FF0807040696E231A4AD3
:101F4000294644691948A0474FF080704069002233
:101F50001146C368154898474FF080704069016E7C
:101F6000124888474FF080704069C1690F48884720
:101F70000F490E4801F0E0FF4FF08070806CD021D7
:101F800082694B2090474FF0807040694FF4826126
:101F9000426C0648904770BD020800F0031800F03C
:101FA0000118020000600040A086010000F000401F
:101FB000D539000038B504468AA0006800908A48E8
:101FC00040688949086000F067FF87494860084613
:101FD00040680968401A40F6C411884202D90020BE
:101FE00082490870814801780078401C7F4A10704F
:101FF0007F4844541046007819287CD11820114697
:1020000008707B4800780F2876D17948007E38B177
:102010007748007E774A12781DF802108842F3D183
:10202000002072490870724840787149897801F03F
:10203000070140EA0120704988826D48C078800617
:10204000400D6B49897840EAE1006B49C8826848D5
:102050004079C007400D6649097940EA810064492A
:10206000C97840EAA1106449088361488079000773
:10207000400D5F49497940EA61005F4948835C4807
:10208000C0794006400D5A49897940EA21105A49E1
:1020900088835748407A8007400D5549097A40EABD
:1020A00041005349C97940EAE1105349C883504877
:1020B000807AC006400D4E49497A40EAA1004E4957
:1020C00008844B48C07AC0004949897A40EA6111C6
:1020D000494841844648007B4549497B01F0070156
:1020E00040EA0120444988844148807B8006400DB5
:1020F0003F49497B01E074E069E040EAE1003E4984
:10210000C8843B48007CC007400D3949C97B40EA80
:1021100081003749897B40EAA11037490885344856
:10212000407C0007400D3249097C40EA6100324999
:1021300048852F48807C4006400D2D49497C40EA67
:1021400021102D4988852A48007D8007400D2849A7
:10215000C97C40EA41002649897C40EAE1102649D1
:10216000C8852348407DC006400D2149097D40EACD
:10217000A100214908861E48807DC0001C49497D78
:1021800040EA61111C4841861948C07D1A4981F80E
:102190003400084690F8340000F0080040B90846C2
:1021A000B0F84E00401CA1F84E00022081F850000B
:1021B00010480078401C0F4908700878C11700EBE0
:1021C00091718910A0EB81010A4A117009E0002089
:1021D00005E0074A411C515C1154411CC8B2182843
:1021E000F7DB38BD04142434D8000020E0000020C0
:1021F000820E0020E1000020300E002010B54FF0CC
:102200008070406CC16D0E488847032002460D4B1C
:1022100019684FF6FF0319400B4B0B4343EA0221A9
:10222000084B196000BF4FF08071896F08698047C3
:102230004FF08071896F0868804701F0F9FC10BD8C
:10224000400500C10CED00E00000FA0510B54FF0AC
:102250008070406C8169194888474FF08070C06B6E
:102260002221C2681648904701F02CFC4FF47A7185
:10227000B0FBF1F44FF08070C06B2246FF21836BFE
:102280000F4898474FF08070806CE02182692320CE
:1022900090474FF08070C06B0121C26C0848904796
:1022A000084AFF21064801F037FD4FF08070C06BEF
:1022B000FF2142680248904710BD0000000400F072
:1022C00000000340013D000070B504464FF08070EF
:1022D000406C81692C4888474FF08070406C816960
:1022E0002A4888474FF08070006A816E0120884735
:1022F0004FF08070006A816E40F2014088474FF0D5
:102300008070006A0321426D4FF0402090474FF0EB
:102310008071496C086E804706464FF080704069B6
:1023200060232246314645691948A8474FF080701E
:10233000406920220421C368154898474FF08070F7
:102340004069016E124888474FF080704069C1694A
:102350000F4888470F490E4801F0EEFD4FF080709E
:10236000806C40218269152090474FF08070406951
:102370001021C26E064890474FF08070406970216E
:10238000426C0348904770BD001800F0000800F050
:1023900000C00040813D000070B504460D4600209D
:1023A0000AE0225C07490B780978491C054E317018
:1023B0000549CA54411CC8B2A842F2DB00F006F835
:1023C00070BD0000CC0100202011002010B504E0F9
:1023D0000B480078401C0A490870094800780949F0
:1023E000097888420BD00848054B1B78C15C4FF038
:1023F00080704069C26B054890470028E8D110BD45
:10240000CD010020CC0100202011002000C00040A0
:1024100070B504464FF08070406C81692B48884746
:102420004FF08070406C8169294888474FF0807078
:10243000006A816E274888474FF08070006A816E7D
:10244000254888474FF08070006A3021426D23484C
:1024500090474FF08071496C086E804706464FF0F8
:102460008070406960232246314645691C48A84770
:102470004FF08070406920220421C36818489847B3
:102480004FF080704069016E154888474FF08070AA
:102490004069C169124888471249114801F04CFD52
:1024A0004FF08070806C402182694C2090474FF043
:1024B000807040691021C26E094890474FF08070CB
:1024C00040697021426C0648904770BD041800F0C6
:1024D000020800F001100200011402000060004038
:1024E00000000140D93D000010B504E00B48007821
:1024F000401C0A490870094800780949097888424F
:102500000BD00848054B1B78C15C4FF080704069C8
:10251000C26B054890470028E8D110BDCF010020CC
:10252000CE010020201200200000014070B50446BA
:102530004FF08070406C81692B4888474FF0807065
:10254000406C8169294888474FF08070006A816E2D
:10255000274888474FF08070006A816E2548884779
:102560004FF08070006A3021426D234890474FF051
:102570008071496C086E804706464FF08070406954
:1025800060232246314645691C48A8474FF08070B9
:10259000406920220421C368184898474FF0807092
:1025A0004069016E154888474FF080704069C169E5
:1025B000124888471249114801F0BEFC4FF0807064
:1025C000806C402182694D2090474FF080704069B7
:1025D0001021C26E094890474FF080704069702109
:1025E000426C0648904770BD051800F0040800F0E2
:1025F00001100400011404000040024000100140DA
:10260000313E000010B504E00B480078401C0A4938
:102610000870094800780949097888420BD00848B1
:10262000054B1B78C15C4FF080704069C26B054858
:1026300090470028E8D110BDD1010020D001002032
:10264000201300200010014070B504464FF0807048
:10265000406C81692B4888474FF08070406C8169DD
:10266000294888474FF08070006A816E2748884764
:102670004FF08070006A816E254888474FF0807067
:10268000006A0321426D234890474FF08071496CE6
:10269000086E804706464FF08070406960232246EE
:1026A000314645691C48A8474FF080704069202298
:1026B0000421C368184898474FF080704069016E44
:1026C000154888474FF080704069C16912488847B3
:1026D0001249114801F030FC4FF08070806C4021AD
:1026E00082694F2090474FF0807040691021C26E80
:1026F000094890474FF0807040697021426C06484D
:10270000904770BD071800F0040800F001000400B5
:10271000010404000040024000300140893E0000F6
:1027200010B504E00B480078401C0A4908700948BD
:1027300000780949097888420BD00848054B1B7876
:10274000C15C4FF080704069C26B0548904700281B
:10275000E8D110BDD3010020D201002020140020B8
:102760000030014070B504464FF08070406C8169C4
:10277000304888474FF08070406C81692E48884708
:102780002E482F4908608020091D08600020091F7D
:1027900008604FF08070006A816E2A4888474FF0C9
:1027A0008070006A816E284888474FF08070006A08
:1027B000C021426D254890474FF08071496C086EEA
:1027C000804706464FF080704069602322463146BC
:1027D00045691F48A8474FF08070406920220421B6
:1027E000C3681B4898474FF080704069016E1848D5
:1027F00088474FF080704069C1691548884715497E
:10280000134801F099FB4FF08070806C4021826981
:10281000312090474FF0807040691021C26E0C4803
:1028200090474FF0807040697021426C0848904793
:1028300070BD0000021800F0030800F04B434F4C3D
:102840002075004001180300011C030000700040C7
:1028500000E00040E13E000070B504460D46002057
:102860000AE0225C07490B780978491C054E317053
:102870000549CA54411CC8B2A842F2DB00F006F870
:1028800070BD0000D40100202015002010B504E028
:102890000B480078401C0A4908700948007809492B
:1028A000097888420BD00848054B1B78C15C4FF073
:1028B00080704069C26B054890470028E8D110BD80
:1028C000D5010020D40100202015002000E00040A8
:1028D00010B5FFF77BFDFFF707FEFFF793FEFFF74D
:1028E0001FFFFFF7D3FF10BD10B52DED088B03F0D0
:1028F000D3FB12480068FDF7DCFE41EC1B0B9FED9B
:10290000100B53EC102BFDF7E2FD41EC1A0B9FED81
:102910000E0B53EC102BFDF74CFE41EC190B9FED09
:102920000C0B53EC102BFDF7D2FD41EC180BFDF70F
:102930002FFF00EE100ABDEC088B10BDB001002087
:102940006666666666660A400000000000FEAF40EC
:10295000000000000000264010B54FF08070406C71
:1029600081691B4888474FF08070406C8169184826
:1029700088474FF08070406C81691548C01E8847B9
:102980004FF08070406C81691148801C88474FF07F
:102990008070006A0121C26B0E4890474FF0807032
:1029A000006A0221C26B0B4890474FF08070006AAA
:1029B0004021C26B4FF0402090474FF08070006A7A
:1029C0001021C26B044890470020FEF737FF10BD6E
:1029D000030800F0007000400050024010B50446AB
:1029E0005948008800EE100AB8EE400ADFED570A99
:1029F00020EE200ABDEEC00A10EE100A00B25449C3
:102A000008805148408800EE100AB8EE400ADFED19
:102A10004F0A20EE200ABDEEC00A10EE100A00B2E6
:102A200048804948808800EE100AB8EE400ADFED81
:102A3000470A20EE200ABDEEC00A10EE100A00B2CE
:102A400088804148C08800EE100AB8EE400ADFEDE9
:102A50003F0A20EE200ABDEEC00A10EE100A00B2B6
:102A6000C8803948008900EE100AB8EE400ADFED50
:102A7000370A20EE200ABDEEC00A10EE100A00B29E
:102A800008813148408900EE100AB8EE400ADFEDB7
:102A90002F0A20EE200ABDEEC00A10EE100A00B286
:102AA00048812948808900EE100AB8EE400ADFED1F
:102AB000270A20EE200ABDEEC00A10EE100A00B26E
:102AC00088812148C08900EE100AB8EE400ADFED87
:102AD0001F0A20EE200ABDEEC00A10EE100A00B256
:102AE000C8811C48007818B901201A49087027E0ED
:102AF000E4B1002017E0164931F91010002901DC7B
:102B000000210BE0124931F91010B1F57A7F02DD96
:102B10004FF47A7102E00E4931F910100C4A22F894
:102B20001010411CC8B20828E5DB09E0002005E0D0
:102B30000021074A22F81010411CC8B20828F7DB10
:102B40000348FEF7D5FE10BDCA0D0020CDCCCC3D0C
:102B5000E40D0020C000002010B500200C49887052
:102B60000C4890F8000688B910200A4981F801063F
:102B70000021084880F80216022180F8031600F2AE
:102B80000161FF20FEF7A8FD012010BD0020FCE739
:102B9000240E0020A006002010B501200C498870EA
:102BA0000C4890F8000688B910200A4981F80106FF
:102BB0000021084880F80216012180F8031600F26F
:102BC0000161FF20FEF788FD012010BD0020FCE719
:102BD000240E0020A0060020F8B504460F46002071
:102BE0000090AA219DF80020501CC0B200902A48F5
:102BF000815439789DF80020501CC0B200902648BE
:102C000081549DF80010481CC0B2009022484454E2
:102C100000219DF80020501CC0B200901E48815435
:102C2000024669462046FEF7E5F99DF80000001FC0
:102C30001949C87000250026002007E01649095CE4
:102C40002944CDB27119CEB2411CC8B29DF8001012
:102C50008842F3DB9DF80010481CC0B200900E487B
:102C600045549DF80010481CC0B200900A484654D4
:102C70000A4890F8000640B1E02C06D1074880F8D9
:102C80000F4680F8105680F811669DF80010024833
:102C9000FEF732F9F8BD00006C060020A006002007
:102CA00001464C48007800287ED00022494B1A701B
:102CB000494A1288C832484B1A80484A127D484B0C
:102CC0005A76464AD37D464A9376444A9369444AA3
:102CD000C2F81B30414AD369414AC2F81F303F4A0B
:102CE000526A0A2392FBF3F33D4AC2F823303B4A6F
:102CF000126B0A2392FBF3F213B2394AA2F827307F
:102D0000364A526B0A2392FBF3F213B2344AA2F80A
:102D10002930324A926B0A2392FBF3F213B2304A03
:102D2000A2F82B302D4AB2F84C2000EE102AB8EE53
:102D3000400ADFED2C0A20EE200ABCEEC00A10EE9D
:102D4000100A08B9002204E0C82801D9C82200E00E
:102D500002461046224A82F82D00204A526C00EEAC
:102D6000102AB8EE400ADFED1F0A20EE200ABCEE62
:102D7000C00A10EE100A08B9002204E0C82801D9E0
:102D8000C82200E002461046154A82F82E00134A77
:102D9000D26A00EE102AB8EE400ADFED120A20EEE9
:102DA000200ABCEEC00A00E012E010EE100A08B9DA
:102DB000002204E0C82801D9C82200E002461046DB
:102DC000074A82F82F000123074A82F8213100BF09
:102DD00070470000EA000020EC000020180F0020DF
:102DE000F40D00200AD7233CA006002010B50E21C8
:102DF0000148FFF7D1FA10BDEE0000201D48007811
:102E0000FF2804D01B480078401C1A4908701A4853
:102E100000781A490978884216D01748007817496F
:102E200008701548007A50B11348C07838B112487C
:102E300040891349088010488089488004E04FF495
:102E400000400F49088048800B4840780D490978B8
:102E500088420ED0084840780A4908704FF4004074
:102E6000074988800121084880F833110020014972
:102E700008707047C80000209C0E0020C60000208B
:102E8000F40D0020C7000020A006002001480068C3
:102E900070470000A80100204FF0E02040694FF08B
:102EA000E0218969401A4FF47A7148434FF0E021DC
:102EB0004969B0FBF1F004490A684FF47A71A2FB4A
:102EC0000112401870470000A801002010B50C48FE
:102ED00090F8000688B90120094981F8010600210F
:102EE000074880F80216032180F8031600F20161FA
:102EF000FF20FEF7F1FB012010BD0020FCE70000E1
:102F0000A006002010B5642000F018FB4FF4165006
:102F1000FFF7DAF9322000F011FB1C212A48FFF7F5
:102F20003BFA642000F00AFB4FF49640FFF7CCF91F
:102F3000322000F003FB1C212348FFF72DFA642008
:102F400000F0FCFA4FF41640FFF7BEF9322000F013
:102F5000F5FA1C211C48FFF71FFA642000F0EEFA76
:102F60004FF4E130FFF7B0F9142000F0E7FA0B213D
:102F70001648FFF711FA142000F0E0FA0B2114486C
:102F8000FFF70AFA142000F0D9FA0B211148FFF7D5
:102F900003FA142000F0D2FA0B210F48FFF7FCF9D6
:102FA000142000F0CBFA0B210C48FFF7F5F91420A0
:102FB00000F0C4FA0B210A48FFF7EEF9142000F0E4
:102FC000BDFAFFF713FF10BD2601002057010020B6
:102FD000620100206D0100207801002083010020A3
:102FE0008E0100201649042804BF086840F4803090
:102FF00018D0052804BF086840F4003012D0062815
:1030000012D00F2815D0102838BF7047103800F0A4
:103010001F01012202FA01F142090A4850F8220078
:103020000160704708607047086840F480200860BD
:1030300070474FF0E020016941F0020101617047E3
:1030400024ED00E0E065000030B40A4D2A680A4B28
:103050009A421CBFD5F800C0002207D05CF822407D
:1030600043F82240521C9B2AF8D32B6043F82010CF
:1030700030BC704708ED00E00004002090ED090A24
:1030800060EE000AB7EE000AB0EE001A01EE600A28
:1030900081ED000A90ED080AF0EE000A20EE200A09
:1030A000D0ED090A20EE200A81ED010A90ED070A11
:1030B000F0EE000A20EE200AD0ED090A20EE200AE8
:1030C00081ED020A90ED080AF0EE000A20EE200AD7
:1030D000D0ED090A20EE200A81ED030A90ED080ADE
:1030E00060EE000AB7EE000AB0EE001A01EE600AC8
:1030F00081ED040A90ED070AF8EE000A20EE200A9E
:10310000D0ED080A20EE200A81ED050A90ED070AAD
:10311000F8EE000A20EE200AD0ED090A20EE200A7F
:1031200081ED060A90ED070AF0EE000A20EE200A73
:10313000D0ED080A20EE200A81ED070AB7EE000A5A
:1031400081ED080A7047000010B500201DE012490B
:1031500031F81010114A1256914204DA01218140CF
:1031600021438CB202E0012181408C430A4931F8AD
:103170001010491C89B2084A22F81010142902DBE9
:10318000002122F81010411CC8B20428DFDB2046C1
:10319000FEF754FB10BD0000B8010020B401002070
:1031A00010B52548C078002844D12448B0F9400023
:1031B00040F24C41884217DA2048B0F93C0088427E
:1031C00012DA1E48B0F93E0088420DDA1B48B0F909
:1031D0003A00884208DA1A48007838BBFFF776FED2
:1031E00001201749087025E01448B0F9400040F26A
:1031F0006C7188421BDD1148B0F93C0040F24C4133
:10320000884214DA0D48B0F93E0088420FDA0B48C4
:10321000B0F93A0040F26C71884208DD0848007845
:1032200020B900F06FF901200549087002E0002084
:103230000349087010BD0000240E0020300E00204D
:10324000D100002010B5044612480078A0421FD0DB
:10325000114890F80006C8B9104804700D48047071
:1032600001200D4981F8010601210B4880F8021662
:1032700080F8031609480178074880F8041600F220
:103280000161FF20FEF728FA012010BD0020FCE7B5
:103290000120FAE7CA000020A0060020240E00202A
:1032A00010B52DED028BB0EE408AFFF7A7FD00BFF1
:1032B0000F4840780F490978884214D00C4840786C
:1032C0000C49087000200C4988744FF487710A4833
:1032D000A0F813100648C1690748C0F8151001216D
:1032E000064880F8391100BFBDEC028B10BD00000C
:1032F0009C0E0020C9000020F40D0020A006002034
:1033000010B52DED020B054890F8390020B968463C
:1033100000F006F8FFF744FF1CBD0000300E00204F
:1033200010B504466C48B0F94000B0F5AF6F0BDD46
:103330006948B0F94000B0F5C86F05DA0120674967
:1033400048706749087002E000206449487062488C
:10335000B0F93E00B0F5966F06DA6048407818B9CB
:1033600001205E49087002E000205C4908705C485A
:10337000007801284AD15B48C078002853D15648CC
:10338000B0F93A0040F26C71884210DD5248B0F951
:103390003C0040F24C41884209DA4F48B0F93E0007
:1033A000884204DA4C48B0F94000884217DB4A48AA
:1033B000B0F9400040F26C71884230DD4648B0F907
:1033C0003C0040F24C41884229DA4348B0F93E00C3
:1033D000884224DA4048B0F93A0088421FDA42486D
:1033E0000088B0F57A7F12DAD4ED000A3E480088F2
:1033F00000EE100AB8EE400A9FED3C1A00EE810A7A
:10340000BCEEC00A10EE100A3749088062E0FFF7F0
:10341000C3FB002034490880314908705AE000207D
:103420003149088056E02F48C078012852D12A48F7
:10343000B0F93A0040F26C71884210DD2648B0F9CC
:103440003C0040F24C41884209DA2348B0F93E0082
:10345000884204DA2048B0F94000884217DB1E4851
:10346000B0F9400040F26C71884230DD1A48B0F982
:103470003C0040F24C41884229DA1748B0F93E003E
:10348000884224DA1448B0F93A0088421FDA164814
:103490000088B0F5967F12DAD4ED000A1248008851
:1034A00000EE100AB8EE400A9FED101A00EE810AF5
:1034B000BCEEC00A10EE100A0B4908800AE0FFF7C4
:1034C0004BFB0020084908800549087002E00020F5
:1034D0000549088010BD0000300E0020CC000020FF
:1034E000D0000020240E0020CE00002000007A44EE
:1034F00070477047704770477047704710B500F0CD
:1035000067FF10BD10B50C4890F8000688B901207F
:10351000094981F801060021074880F802160421B4
:1035200080F8031600F20161FF20FEF7D5F80120B4
:1035300010BD0020FCE70000A006002070B5044686
:10354000064860430321B0FBF1F54FF08070406CFA
:10355000D0F888102846884770BD000080380100E8
:10356000704710B52DED068B044694ED070A20EE4A
:10357000000AD4ED080A94ED081A00EE810AD4ED91
:10358000090A94ED091A00EE810A10EE101A084695
:10359000FDF7BBF841EC1A0BB0EE4A0AF0EE6A0AEE
:1035A00002F028FDB0EE409AF0EE609A51EC190B53
:1035B000FDF7EEF808EE100AB5EEC08AF1EE10FA4B
:1035C00011DD94ED070AC0EE080AC4ED070A94ED78
:1035D000080AC0EE080AC4ED080A94ED090AC0EE14
:1035E000080AC4ED090ABDEC068B10BD10B50C48E5
:1035F00090F8000688B91020094981F801060021D9
:10360000074880F80216062180F8031600F20161CF
:10361000FF20FEF761F8012010BD0020FCE700004C
:10362000A006002010B50C4890F8000688B91020BC
:10363000094981F801060021074880F80216072190
:1036400080F8031600F20161FF20FEF745F8012023
:1036500010BD0020FCE70000A006002001B51048C6
:1036600090F80006C8B910200D4981F80106002124
:103670000B4880F80216052180F803169DF800100B
:1036800080F804169DF8011080F8051600F201611B
:10369000FF20FEF721F8012008BD0020FCE7000014
:1036A000A0060020034A82F84C05012382F84D351C
:1036B00070470000A006002010B54FF08070C06B6E
:1036C00004210268194890474FF08070C06BFF21B9
:1036D000026C16489047164908600846006815496C
:1036E000096888420AD91248006812490968401AD4
:1036F0005021B0FBF1F0104908600CE00C48006864
:103700000C490968401A6FF07F4108445021B0FB12
:10371000F1F0094908600648006806490860064952
:10372000098888B2FEF75AF910BD00000070034006
:10373000C0010020C4010020C801002000B52DED0B
:10374000028B85B0B0EE408A914890F8390000288D
:103750007DD18F48B0F94200B0F5966F06DA0120AE
:10376000FFF770FD01208B49087013E08848B0F91D
:10377000420040F2A461884206DA0220FFF762FDAF
:1037800002208449087005E00320FFF75BFD032059
:10379000804908707F4840787E49097888420BD07C
:1037A0007C4800787B49487008460078032803D19C
:1037B00008468078401C88707648807810B3764838
:1037C0000088B0F5FA6F10DA7348008800EE100A2E
:1037D000B8EE400ADFED710A00EE880ABCEEC00ABE
:1037E00010EE100A6C4908800CE06A4989780329B8
:1037F00001DBFFF717FF20B10021674A1180654AFE
:10380000917000BF6248B0F93A00A0F2DC5000EEBF
:10381000900AF8EEE00AB0EE600A9FED611ADFED63
:10382000610A02F04DFC8DED010A5948B0F93C00E7
:10383000A0F2DC5000EE900AF8EEE00AB0EE600A6A
:103840009FED571ADFED570A02F03AFC00E07BE0EB
:103850008DED020A4E48B0F93E00A0F2DC5000EEB9
:10386000900AF8EEE00AB0EE600A9FED4F1ADFED25
:103870004D0A02F025FC8DED030A4548B0F94000E1
:10388000A0F2DC5000EE900AF8EEE00AB0EE600A1A
:103890009FED451ADFED430A02F012FC8DED040A9C
:1038A0004248007858B19FED3F0A8DED010A9FED27
:1038B0003D0A8DED020A9FED3B0A8DED040A9DED58
:1038C000010ADFED3B0A20EE200ADFED3A0A20EE86
:1038D000200ABDEEC00A10EE100A00B23649088078
:1038E0009DED020AB1EE400ADFED310A20EE200A1A
:1038F000DFED300A20EE200ABDEEC00A10EE100AFD
:1039000000B248802248C08FA0F57A7000B288804B
:103910009DED040AB1EE400ADFED280A20EE200AF0
:10392000DFED270A20EE200ABDEEC00A10EE100AD5
:1039300000B2C8800121234880F887110020224965
:103940000870224908701EE02148C07878B11E48EE
:10395000007828B90320FFF775FC1B49087006E0C2
:103960001A48007818B9FFF75DFE18490870002062
:103970001149088048804FF4AF7088800020C880CB
:1039800088814881088105B0BDEC028B00BD000034
:10399000300E0020BB000020BE00002000007A4452
:1039A00000002042000000000000A042CC000020E7
:1039B0008F360E3B00C05A45BC0D0020C6F91B3B9C
:1039C00000004843A0060020B9000020BA000020F3
:1039D000240E002070B54FF0807040690121C26C48
:1039E0000F48904705464FF0807040692946026DA8
:1039F0000B4890474FF080704069816F08488847B6
:103A000005E007480068C4B22046FEF7D3FA4FF03D
:103A100080704069C16A024888470028F1D170BDB2
:103A200000F0004070B5002400BF1EE0FFF72EFA42
:103A3000054604EB44000E4901EB80008068281A1B
:103A400004EB44010A4A02EB8101C98888420AD387
:103A500004EB4400114601EB8000856004EB440157
:103A600052F821008047601CC4B2072CDED370BD21
:103A700000000020002000BF1FE000EB4001104AC2
:103A800002EB810189884FF47A7292FBF1F100EB2D
:103A900040020B4B03EB8202D18000EB40011A463F
:103AA00002EB8101C988012905DA012100EB4002FE
:103AB00003EB8202D180411CC8B20728DDD37047D6
:103AC0000000002070B44B4D2A6E296F11F0004F9A
:103AD00014BF01F0700002F03000202808BF4648F3
:103AE00018D005DC88B1102808BF444812D009E07E
:103AF000302808BF47F230500CD0702808BF4FF470
:103B0000004007D070BC002070477C203C4B00EA8E
:103B1000121018584FF0FF3311F0004F02D011F47B
:103B2000006F06D001F0004C02F400645CEA040C63
:103B300036D1D5F860C1D5F8644104F01F06C4F34E
:103B40000424641C761C16FB04F46400B0FBF4F03F
:103B5000CCF309044443CCF3892C00FB0CF0D5F8DA
:103B600010C004EB902042F480020CF4704CBCF5C1
:103B7000804F08BF234B13D009DCBCF5005F08BFA2
:103B8000214B0DD0BCF5405F08BF204B08E0BCF5D1
:103B9000E04F08BF1E4B03D0BCF5104F08BF1D4BB4
:103BA00012F4800F21D011F0004F19D011F0804F86
:103BB00009D011F4006F0CD001F0004C02F4006247
:103BC0005CEA020205D0C1F3C551491CB0FBF1F01B
:103BD0000BE04000C1F38651491CB0FBF1F004E05A
:103BE000C2F3C351491CB0FBF1F0834238BF184601
:103BF00070BC704700E00F4000093D000024F40055
:103C0000B8610000005A620200B4C40480F0FA02F5
:103C100040787D01002D31010448D0E900305A1C64
:103C200040F100000149C1E900207047A8010020CF
:103C300010B54FF08071496C086E80474FF47A716F
:103C4000B0FBF1F44FF08070806B416920468847EB
:103C50004FF08071896BC86880474FF08071896B25
:103C60004868804710BD00001B49096841F4700195
:103C7000194A116019491A4A11671A4911661A49F5
:103C800011661A491167002000E0401CB0F57A7FE8
:103C9000FBD31749124A116616491167002000E04C
:103CA000401CB0F57A7FFBD313490D4A116600BF63
:103CB0000B49096D01F040014029F9D10F49084A2B
:103CC00011664FF0C0711167002000E0401C42F205
:103CD00010718842FAD3704788ED00E01028800701
:103CE00000E00F40D13A8E07422D9E01002880014E
:103CF000420D9E0100088001420DDE014205DE01F9
:103D000010B50121024800F005F8FDF725F910BDB6
:103D1000000003404162704770B5164BDFF850C099
:103D20000C241B68144D2B40A3F18055B5F52025BC
:103D300004BFDFF848C008240023002C0ED95CF82B
:103D40003350854207D10CEBC300B1F57F4F446877
:103D500008BF641C03E05B1CA342F0D3002411469F
:103D60002046FFF771F92046BDE87040FFF73AB9E9
:103D70000464000000E00F400000FF706464000075
:103D800070B54FF0807040690121C26C11489047B6
:103D900005464FF0807040692946026D0D489047F6
:103DA00009E04FF080704069816B0A488847C4B2CF
:103DB000204600F0EDF84FF080704069C16A054878
:103DC00088470028EDD105F0200008B1FEF7FEFA83
:103DD00070BD000000C0004070B54FF080704069B9
:103DE0000121C26C1148904705464FF08070406930
:103DF0002946026D0D48904709E04FF080704069F8
:103E0000816B0A488847C4B22046FFF7A9FB4FF0F0
:103E100080704069C16A054888470028EDD105F0E7
:103E2000200008B1FEF760FB70BD000000000140FB
:103E300070B54FF0807040690121C26C1148904705
:103E400005464FF0807040692946026D0D48904745
:103E500009E04FF080704069816B0A488847C4B21E
:103E6000204600F047F94FF080704069C16A05486C
:103E700088470028EDD105F0200008B1FEF7C2FB0D
:103E800070BD00000010014070B54FF080704069B7
:103E90000121C26C1148904705464FF0807040697F
:103EA0002946026D0D48904709E04FF08070406947
:103EB000816B0A488847C4B22046FDF739FB4FF0B2
:103EC00080704069C16A054888470028EDD105F037
:103ED000200008B1FEF724FC70BD00000030014056
:103EE00070B54FF0807040690121C26C1148904755
:103EF00005464FF0807040692946026D0D48904795
:103F000009E04FF080704069816B0A488847C4B26D
:103F10002046FCF765FF4FF080704069C16A054894
:103F200088470028EDD105F0200008B1FEF7AEFC6F
:103F300070BD000000E00040124A10B5104B12683E
:103F40004FF0080C104C2240A2F18054B4F520240C
:103F500008BF0E4B002253F83240844203D103EBDA
:103F6000C200446803E0521C6245F4D3002420469A
:103F7000FFF76AF82046BDE81040FFF733B80000AD
:103F8000A464000000E00F400000FF70E464000043
:103F900010B50146002000224F4B1B782BB9B529E4
:103FA00003D101234C4C237095E04B4B1B78012B24
:103FB00005D1622903D10223474C23708BE0464B85
:103FC0001B78022B05D10323434C2370434B1970FC
:103FD00081E0414B1B78032B05D104233E4C237019
:103FE0003F4B197077E03C4B1B78042B05D1052320
:103FF000394C23703B4B19706DE0374B1B78052B08
:1040000010D10623344C2370364B1B7803EB01236D
:10401000354C238023461B88622B5CDB00232E4C0F
:10402000237058E02C4B1B78062B54DB2A4B1B7853
:104030009B1F2D4C2488A41CA3420ADA264B1B7814
:104040009B1F2A4CE154244B1B785B1C224C237091
:1040500041E0224B1B780344D8B21318DAB2204B4C
:104060001B780344D8B21318DAB21F4B1B780344F1
:10407000D8B21318DAB21C4B1B8800EB1323D8B24A
:104080001318DAB2002307E0184CE45C0444E0B2F1
:104090001418E2B25C1CE3B2134C2488A342F3DB95
:1040A000124B114C24881B5D834211D10F4C0E4BD7
:1040B0001B885B1CE35C93420AD1084B1B78012BE5
:1040C00006D1074B1B78072B02D10123084C237024
:1040D0000023014C237010BD9F0100209901002096
:1040E0009A0100209B0100209C010020180F002055
:1040F000EA000020F0B52DED048B8FB00446AD48EA
:10410000007830B101280FD0022819D003287DD1C2
:1041100028E0552C07D1A7480078401CA549087015
:104120000020A54908703FE1012C05D1A148007885
:10413000401CA049087002E000209E49087033E14D
:104140009D4801780078401C9B4A10709B4844545D
:10415000104600787E2804D196480078401C954986
:10416000087021E1002038E000EB4002921C934BE4
:104170009A5C130200EB4002D21CDFF840C21CF82C
:10418000022043EA024300EB4002121D1CF8022009
:1041900043EA0261CA1701EB126212120CAB43F838
:1041A000202000EB40020B3263469A5C130200EBC6
:1041B00040020C321CF8022043EA024300EB4002AA
:1041C0000D321CF8022043EA0261CA1701EB1262A9
:1041D000121209AB43F82020401C0328C4DB0A213B
:1041E0000C9890FBF1F50D9890FBF1F60E9890FB72
:1041F000F1F70C9890FBF1F0714948600A210D9895
:1042000090FBF1F06E4988600A2100E0CBE00E9847
:1042100090FBF1F06A49C860002007E0674A00F1AE
:104220005601515C674A1154411CC8B21028F5DB95
:10423000644890ED000A624880ED070A614890EDFD
:10424000010A5F4880ED080A5E4890ED020A5C486A
:1042500080ED090A5B4890ED030A594880ED0A0A8F
:10426000FFF77FF969465648FEF708FF9DED090AFA
:10427000F8EEC00A9FED541A80EE810ADDED000AC7
:1042800020EE200ADDED0A0AB8EEE01ADFED4E1A44
:10429000C1EE210A9DED011A01EE200ADDED0B0AA7
:1042A000B8EEE01ADFED481AC1EE210A9DED021AC0
:1042B000B0EE408A01EE208A9DED090AF8EEC00AB0
:1042C0009FED411A80EE810ADDED030A20EE200AFF
:1042D000DDED0A0AB8EEE01ADFED3B1AC1EE210A65
:1042E0009DED041A01EE200ADDED0B0AB8EEE01A8E
:1042F000DFED351AC1EE210A9DED051A01EE200A07
:10430000F0EE408A9DED090AF8EEC00A9FED2E1AE4
:1043100080EE810ADDED060A20EE200ADDED0A0AB4
:10432000B8EEE01ADFED281AC1EE210A9DED071A5A
:1043300001EE200ADDED0B0AB8EEE01ADFED221ADD
:10434000C1EE210A9DED081A01EE200AB0EE409A56
:104350009FED1E0AB4EEC08AF1EE10FA0DD39FED68
:104360001B0AF4EEC08AF1EE10FA06D39FED170A8D
:10437000B4EEC09AF1EE10FA0ED2BDEEE80A104883
:1043800080ED040AB1EE480ABDEEC00A80ED050AD0
:10439000BDEEC90A80ED060A012009490860002027
:1043A0000449087000E000BF00BF0FB0BDEC048BF3
:1043B000F0BD0000A1010020A2010020F40F0020A8
:1043C0007C0F0020C00F00200000C84200007A448B
:1043D00000B591B0FE48B0F9040000EE100AB8EE46
:1043E000C00ADFEDFC0A20EE200AFB4880ED000A3F
:1043F000FA4890F83900002841F0D985F748B0F91B
:10440000440040F2145188420FDDF448B0F94400F2
:1044100040F2A461884208DAF148007840B964208B
:10442000FFF71CF9EE49087002E00020EC49087023
:10443000EA48B0F94400B0F5487F0DDDE748B0F92F
:104440004400B0F5966F07DAE648007838B9FFF710
:10445000CDF8E449087002E00020E2490870DF4826
:10446000B0F9440040F2A46188420FDDDB48B0F9A6
:10447000440040F69801884208DADB48007840B9E9
:104480000120D9490870D949087002E00020D649B6
:104490000870D5480078012841F08C850020D44967
:1044A000C880888148810881D04800780A2881F036
:1044B0007C85DFE810F00A000F003F005F008200FB
:1044C0002103A5054808D90A5D0D0020C9490880C7
:1044D00001F06CBD0220FEF7B5FE0020C449088142
:1044E0004881C4480088B0F57A7F11DAC148008855
:1044F00000EE100AB8EE400ABF48D0ED000A30EED8
:10450000200ABCEEC00A10EE100ABA49088010E07A
:104510000020B8490880FEF73FFBB44909780844F9
:10452000B2490870B5484068B5490860B34880682A
:104530004860CDE7AF480088B0F5FA6F11DAAD48B2
:10454000008800EE100AB8EE400AAB48D0ED000A31
:1045500030EE200ABCEEC00A10EE100AA549088011
:1045600007E07820FFF77AF8A049097808449F49C6
:104570000870ADE700209E4988819E480088B0F50C
:10458000FA6F11DA9B48008800EE100AB8EE400A74
:104590009948D0ED000A30EE200ABCEEC00A10EEB9
:1045A000100A9449088007E00020924908808F484B
:1045B0000078401C8D4908708AE700208C4988816A
:1045C0008E4840688E490968401A8E4908608B48B9
:1045D00080688B494968401A8B4908608B4800689D
:1045E000FCF793F8CDE90601894800688549096818
:1045F000401A0190FCF74CF89FED860B53EC102B02
:10460000CDE902019DED020B51EC100BFBF75FFFB2
:10461000CDE904019DED060B53EC102B9DED040B31
:1046200051EC100BFBF74DFF9FED7A0B53EC102B69
:10463000CDE908019DED080B51EC100BFBF747FF8E
:10464000CDE90C0171480068FCF75FF8CDE90A017B
:104650009DED0C0B53EC102B9DED0A0B51EC100B48
:10466000FBF78EFECDE90E019DED0E0B51EC100B0C
:10467000FCF78EF86549086068480068FCF745F863
:10468000CDE90601624840685F490968401A019017
:10469000FBF7FEFF9FED5F0B53EC102BCDE9020102
:1046A0009DED020B51EC100BFBF711FFCDE904015E
:1046B0009DED060B53EC102B9DED040B51EC100BF4
:1046C000FBF7FFFE9FED530B53EC102BCDE90801D8
:1046D0009DED080B51EC100BFBF7F9FECDE90C0139
:1046E0004E480068FCF711F8CDE90A019DED0C0B6E
:1046F00053EC102B9DED0A0B51EC100BFBF740FE19
:10470000CDE90E019DED0E0B51EC100BFCF740F8BE
:10471000424908603D480068FBF7F7FF9FED400BFA
:1047200053EC102BCDE906019DED060B51EC100B5F
:10473000FBF7CDFECDE90A01304800690590FBF793
:10474000A7FF9FED390B53EC102BCDE906019DED32
:10475000060B51EC100BFBF7BAFECDE908019DEDFD
:104760000A0B53EC102B9DED080B51EC100BFBF7D3
:1047700007FE9FED2F0B53EC102BCDE90C019DEDA7
:104780000C0B51EC100BFBF7D3FF02D89FED280B5D
:10479000A5E01E480068FBF7B8FF9FED210B53EC26
:1047A000102BCDE906019DED060B51EC100BFBF72C
:1047B0008EFECDE90A01114800690590FBF768FFFC
:1047C0009FED190B53EC102BCDE9060134E00000EE
:1047D000AC0000200AD7233C9C000020300E0020B3
:1047E0008400002085000020860000208700002033
:1047F000BC0D0020A0000020980000207C0F0020AD
:1048000054000020880000208C0000209000002030
:104810005C000020000000000000E03F9400002049
:10482000989999999999C93F9A9999999999E93F2C
:1048300000000000000028C09DED060B51EC100B9D
:10484000FBF745FECDE908019DED0A0B53EC102B5B
:104850009DED080B51EC100BFBF792FD9FEDFE0B4D
:1048600053EC102BCDE90C019DED0C0B51EC100B12
:10487000FBF776FF02D29FEDF80B30E0F8480068B6
:10488000FBF743FF1FED1A0B53EC102BCDE908018A
:104890009DED080B51EC100BFBF719FECDE90C0157
:1048A000F04800690790FBF7F3FE1FED210B53EC76
:1048B000102BCDE908019DED080B51EC100BFBF717
:1048C00006FECDE90A019DED0C0B53EC102B9DED7E
:1048D0000A0B51EC100BFBF753FD41EC100B8DED67
:1048E0000E0B9DED0E0B51EC100BFBF7EFFE00B223
:1048F000DD490881DD480068FBF707FF1FED380B35
:1049000053EC102BCDE906019DED060B51EC100B7D
:10491000FBF7DDFDCDE90A01D24840690590FBF7C0
:10492000B7FE1FED3F0B53EC102BCDE906019DEDBB
:10493000060B51EC100BFBF7CAFDCDE908019DED0C
:104940000A0B53EC102B9DED080B51EC100BFBF7F1
:1049500017FD1FED490B53EC102BCDE90C019DED1C
:104960000C0B51EC100BFBF7E3FE02D81FED500BC4
:104970006FE0BE480068FBF7C8FE1FED570B53EC15
:10498000102BCDE906019DED060B51EC100BFBF74A
:104990009EFDCDE90A01B34840690590FBF778FE1A
:1049A0001FED5F0B53EC102BCDE906019DED060BBF
:1049B00051EC100BFBF78BFDCDE908019DED0A0BC7
:1049C00053EC102B9DED080B51EC100BFBF7D8FCB2
:1049D0009FEDA10B53EC102BCDE90C019DED0C0BC1
:1049E00051EC100BFBF7BCFE02D29FED9B0B30E0AD
:1049F0009E480068FBF789FE1FED770B53EC102BE8
:104A0000CDE908019DED080B51EC100BFBF75FFDA4
:104A1000CDE90C01934840690790FBF739FE1FED83
:104A20007E0B53EC102BCDE908019DED080B51ECEA
:104A3000100BFBF74CFDCDE90A019DED0C0B53EC7F
:104A4000102B9DED0A0B51EC100BFBF799FC41EC80
:104A5000100B8DED0E0B9DED0E0B51EC100BFBF7BB
:104A600035FE00B280494881814800688149096863
:104A7000081A002805DD7E4800687E490968081A82
:104A800004E07B4800687B490968401A0A2832DA4A
:104A90007748406878490968081A002805DD744895
:104AA000406875490968081A04E07148406872490D
:104AB0000968401A0A281EDA70480088B0F5FA6FB3
:104AC00011DA6E48008800EE100AB8EE400A6C4811
:104AD000D0ED000A30EE200ABCEEC00A10EE100A3B
:104AE0006649088007E0002064490880654800782E
:104AF000401C64490870EBE400205B4988815948F8
:104B0000406861490968401A5A49086055488068F8
:104B10005D494968401A5849086051480068FBF7E8
:104B2000F4FDCDE906015248806852490968401AEF
:104B30000190FBF7ADFD1FEDC90B53EC102BCDE938
:104B400002019DED020B51EC100BFBF7C0FCCDE90F
:104B500004019DED060B53EC102B9DED040B51EC65
:104B6000100BFBF7AEFC1FEDD50B53EC102BCDE972
:104B700008019DED080B51EC100BFBF7A8FCCDE9EB
:104B80000C0137480068FBF7C0FDCDE90A019DED37
:104B90000C0B53EC102B9DED0A0B51EC100BFBF79B
:104BA000EFFBCDE90E019DED0E0B51EC100BFBF769
:104BB000EFFD2B4908602D480068FBF7A6FDCDE905
:104BC00006012B48C0682C490968401A0190FBF780
:104BD0005FFD1FEDF00B53EC102BCDE902019DEDB5
:104BE000020B51EC100BFBF772FCCDE904019DEDBB
:104BF000060B53EC102B9DED040B51EC100BFBF747
:104C000060FC1FEDFC0B53EC102BCDE908019DED72
:104C1000080B51EC100BFBF75AFCCDE90C011348C3
:104C20000068FBF772FDCDE90A019DED0C0B53EC1A
:104C3000102B9DED0A0B51EC100BFBF7A1FBCDE9FE
:104C40000E019DED0E0B51EC100BFBF7A1FD07497A
:104C500008600348006819E00000000000002840D8
:104C6000900000207C0F0020BC0D0020940000204C
:104C70005C000020880000208C000020A0000020A4
:104C8000980000208700002054000020FBF73DFD25
:104C90009FEDFE0B53EC102BCDE906019DED060BAD
:104CA00051EC100BFBF713FCCDE90A01F948006940
:104CB0000590FBF7EDFC9FEDF80B53EC102BCDE9C5
:104CC00006019DED060B51EC100BFBF700FCCDE946
:104CD00008019DED0A0B53EC102B9DED080B51ECD8
:104CE000100BFBF74DFB9FEDEE0B53EC102BCDE9BA
:104CF0000C019DED0C0B51EC100BFBF719FD02D8CC
:104D00009FEDE70B6FE0E8480068FBF7FEFC9FEDC6
:104D1000DF0B53EC102BCDE906019DED060B51EC9A
:104D2000100BFBF7D4FBCDE90A01DA4800690590C6
:104D3000FBF7AEFC9FEDD80B53EC102BCDE9060131
:104D40009DED060B51EC100BFBF7C1FBCDE9080103
:104D50009DED0A0B53EC102B9DED080B51EC100B45
:104D6000FBF70EFB1FED440B53EC102BCDE90C01B0
:104D70009DED0C0B51EC100BFBF7F2FC02D21FED7A
:104D80004A0B30E0C8480068FBF7BFFC9FEDBF0B43
:104D900053EC102BCDE908019DED080B51EC100BE5
:104DA000FBF795FBCDE90C01BA4800690790FBF7CA
:104DB0006FFC9FEDB90B53EC102BCDE908019DED75
:104DC000080B51EC100BFBF782FBCDE90A019DEDBE
:104DD0000C0B53EC102B9DED0A0B51EC100BFBF759
:104DE000CFFA41EC100B8DED0E0B9DED0E0B51EC3F
:104DF000100BFBF76BFC00B2AC490881AC480068B3
:104E0000FBF783FC9FEDA10B53EC102BCDE90601C2
:104E10009DED060B51EC100BFBF759FBCDE90A0198
:104E20009C4840690590FBF733FC9FED9B0B53ECCE
:104E3000102BCDE906019DED060B51EC100BFBF795
:104E400046FBCDE908019DED0A0B53EC102B9DEDBF
:104E5000080B51EC100BFBF793FA9FED910B53EC01
:104E6000102BCDE90C019DED0C0B51EC100BFBF759
:104E70005FFC02D89FED8A0B6FE08D480068FBF75E
:104E800044FC9FED820B53EC102BCDE906019DED08
:104E9000060B51EC100BFBF71AFBCDE90A017D481C
:104EA00040690590FBF7F4FB9FED7B0B53EC102B57
:104EB000CDE906019DED060B51EC100BFBF707FB4E
:104EC000CDE908019DED0A0B53EC102B9DED080B6D
:104ED00051EC100BFBF754FA1FEDA10B53EC102B08
:104EE000CDE90C019DED0C0B51EC100BFBF738FCE0
:104EF00002D21FEDA70B30E06D480068FBF705FC00
:104F00009FED620B53EC102BCDE908019DED080BD2
:104F100051EC100BFBF7DBFACDE90C015D48406961
:104F20000790FBF7B5FB9FED5C0B53EC102BCDE925
:104F300008019DED080B51EC100BFBF7C8FACDE909
:104F40000A019DED0C0B53EC102B9DED0A0B51EC5F
:104F5000100BFBF715FA41EC100B8DED0E0B9DEDD0
:104F60000E0B51EC100BFBF7B1FB00B24F4948811F
:104F70005048806850490968081A002805DD4D48E6
:104F800080684D490968081A04E04A4880684A491F
:104F90000968401A0A2832DA4648C0684749096851
:104FA000081A002805DD4348C06844490968081A02
:104FB00004E04048C06841490968401A0A281EDADE
:104FC0003F480088B0F5FA6F11DA3D48008800EEDE
:104FD000100AB8EE400A3B48D0ED000A30EE200A35
:104FE000BCEEC00A10EE100A3549088007E0002028
:104FF0003349088034480078401C334908707AE50A
:1050000000202A4988812348406830490968401AAD
:10501000294908601F4880682C494968401A274977
:10502000086021480068FBF770FBCDE906012148C4
:10503000006921490968401A0190FBF729FB9FED9F
:10504000240B53EC102BCDE902019DED020B51EC2A
:10505000100BFBF73CFACDE904019DED060B53EC78
:10506000102B9DED040B51EC100BFBF72AFA9FED72
:10507000180B53EC102BCDE908019DED080B51ECFA
:10508000100BFBF724FACDE90C0125E098999999CA
:105090009999C93F7C0F00209A9999999999E93F6C
:1050A00000000000000028C090000020BC0D00207F
:1050B000940000205C000020880000208C0000206C
:1050C000A00000209800002087000020540000204D
:1050D000000000000000E03FFE480068FBF715FB01
:1050E000CDE90A019DED0C0B53EC102B9DED0A0B45
:1050F00051EC100BFBF744F9CDE90E019DED0E0BC1
:1051000051EC100BFBF744FBF2490860F2480068D1
:10511000FBF7FBFACDE90601F0484069F049096860
:10512000401A0190FBF7B4FA1FED170B53EC102B4C
:10513000CDE902019DED020B51EC100BFBF7C7F915
:10514000CDE904019DED060B53EC102B9DED040BF6
:1051500051EC100BFBF7B5F91FED230B53EC102BA3
:10516000CDE908019DED080B51EC100BFBF7AFF9F1
:10517000CDE90C01D8480068FBF7C7FACDE90A0170
:105180009DED0C0B53EC102B9DED0A0B51EC100B0D
:10519000FBF7F6F8CDE90E019DED0E0B51EC100B6F
:1051A000FBF7F6FACC490860CA480068FBF7ADFA8D
:1051B0001FED4A0B53EC102BCDE906019DED060BBC
:1051C00051EC100BFBF783F9CDE90A01C5480069E2
:1051D0000590FBF75DFA1FED500B53EC102BCDE95A
:1051E00006019DED060B51EC100BFBF770F9CDE9B4
:1051F00008019DED0A0B53EC102B9DED080B51ECB3
:10520000100BFBF7BDF81FED5A0B53EC102BCDE93B
:105210000C019DED0C0B51EC100BFBF789FA02D839
:105220001FED610B6FE0AB480068FBF76EFA1FEDF6
:10523000690B53EC102BCDE906019DED060B51ECEB
:10524000100BFBF744F9CDE90A01A6480069059067
:10525000FBF71EFA1FED700B53EC102BCDE9060186
:105260009DED060B51EC100BFBF731F9CDE9080170
:105270009DED0A0B53EC102B9DED080B51EC100B20
:10528000FBF77EF89FED980B53EC102BCDE90C014A
:105290009DED0C0B51EC100BFBF762FA02D29FED67
:1052A000920B30E08B480068FBF72FFA1FED890B5B
:1052B00053EC102BCDE908019DED080B51EC100BC0
:1052C000FBF705F9CDE90C01864800690790FBF76B
:1052D000DFF91FED8F0B53EC102BCDE908019DED8D
:1052E000080B51EC100BFBF7F2F8CDE90A019DED2C
:1052F0000C0B53EC102B9DED0A0B51EC100BFBF734
:105300003FF841EC100B8DED0E0B9DED0E0B51ECAB
:10531000100BFBF7DBF900B2754908816E48006895
:10532000FBF7F3F91FEDA70B53EC102BCDE90601AA
:105330009DED060B51EC100BFBF7C9F8CDE90A0106
:10534000684840690590FBF7A3F91FEDAD0B53ECDE
:10535000102BCDE906019DED060B51EC100BFBF770
:10536000B6F8CDE908019DED0A0B53EC102B9DED2D
:10537000080B51EC100BFBF703F81FEDB70B53ECC8
:10538000102BCDE90C019DED0C0B51EC100BFBF734
:10539000CFF902D81FEDBE0B6FE04F480068FBF756
:1053A000B4F91FEDC60B53EC102BCDE906019DEDB2
:1053B000060B51EC100BFBF78AF8CDE90A014948BE
:1053C00040690590FBF764F91FEDCD0B53EC102BF2
:1053D000CDE906019DED060B51EC100BFBF777F8BC
:1053E000CDE908019DED0A0B53EC102B9DED080B48
:1053F00051EC100BFAF7C4FF9FED3B0B53EC102B55
:10540000CDE90C019DED0C0B51EC100BFBF7A8F94D
:1054100002D29FED350B30E02F480068FBF775F99D
:105420001FEDE60B53EC102BCDE908019DED080BA9
:1054300051EC100BFBF74BF8CDE90C012948406902
:105440000790FBF725F91FEDEC0B53EC102BCDE982
:1054500008019DED080B51EC100BFBF738F8CDE976
:105460000A019DED0C0B53EC102B9DED0A0B51EC3A
:10547000100BFAF785FF41EC100B8DED0E0B9DED37
:105480000E0B51EC100BFBF721F900B218494881C3
:105490001248006917490968081A002805DD0F48F5
:1054A000006914490968081A04E00C4800691149A8
:1054B0000968401A0A2845DA084840690849096815
:1054C000081A002818DD0548406905490968081AC6
:1054D00017E0000090000020940000205C000020F5
:1054E0008C0000207C0F00200000000000002840FD
:1054F000BC0D002088000020FE484069FE49096874
:10550000401A0A281EDAFD480088B0F5FA6F11DA51
:10551000FA48008800EE100AB8EE400AF848D0EDCC
:10552000000A30EE200ABCEEC00A10EE100AF34961
:10553000088007E00020F1490880F2480078401C0C
:10554000F04908708FE20020EF498881EF484068F9
:10555000EF490968401AEF490860EC488068EC4957
:105560004968401AE4490860EB480068FBF7CDF849
:10557000CDE90601DF488069E6490968401A0190D3
:10558000FBF786F89FEDE50B53EC102BCDE90201FC
:105590009DED020B51EC100BFAF799FFCDE90401D8
:1055A0009DED060B53EC102B9DED040B51EC100BF5
:1055B000FAF787FF9FEDD90B53EC102BCDE90801CB
:1055C0009DED080B51EC100BFAF781FFCDE90C01B2
:1055D000D1480068FBF799F8CDE90A019DED0C0B65
:1055E00053EC102B9DED0A0B51EC100BFAF7C8FE93
:1055F000CDE90E019DED0E0B51EC100BFBF7C8F839
:10560000C5490860C7480068FBF77FF8CDE9060187
:10561000B848C069B8490968401A0190FBF738F8E2
:105620009FEDBE0B53EC102BCDE902019DED020B5B
:1056300051EC100BFAF74BFFCDE904019DED060B81
:1056400053EC102B9DED040B51EC100BFAF739FFC6
:105650009FEDB20B53EC102BCDE908019DED080B2B
:1056600051EC100BFAF733FFCDE90C01AD4800689F
:10567000FBF74BF8CDE90A019DED0C0B53EC102B19
:105680009DED0A0B51EC100BFAF77AFECDE90E01F5
:105690009DED0E0B51EC100BFBF77AF8A149086059
:1056A0009D480068FBF731F89FED9F0B53EC102BE2
:1056B000CDE906019DED060B51EC100BFAF707FF43
:1056C000CDE90A01914800690590FAF7E1FF9FEDE5
:1056D000980B53EC102BCDE906019DED060B51EC18
:1056E000100BFAF7F4FECDE908019DED0A0B53EC1F
:1056F000102B9DED080B51EC100BFAF741FE9FEDBE
:105700008E0B53EC102BCDE90C019DED0C0B51ECE5
:10571000100BFBF70DF802D89FED870B6FE07E486A
:105720000068FAF7F2FF9FED800B53EC102BCDE9E8
:1057300006019DED060B51EC100BFAF7C8FECDE902
:105740000A01724800690590FAF7A2FF9FED780BF5
:1057500053EC102BCDE906019DED060B51EC100B1F
:10576000FAF7B5FECDE908019DED0A0B53EC102BBD
:105770009DED080B51EC100BFAF702FE1FEDA60B86
:1057800053EC102BCDE90C019DED0C0B51EC100BE3
:10579000FAF7E6FF02D21FEDAC0B30E05E4800687E
:1057A000FAF7B3FF9FED600B53EC102BCDE9080126
:1057B0009DED080B51EC100BFAF789FECDE90C01B9
:1057C000524800690790FAF763FF9FED590B53ECBD
:1057D000102BCDE908019DED080B51EC100BFAF7E9
:1057E00076FECDE90A019DED0C0B53EC102B9DEDDF
:1057F0000A0B51EC100BFAF7C3FD41EC100B8DEDC9
:105800000E0B9DED0E0B51EC100BFAF75FFF00B283
:105810003D49088143480068FAF777FF9FED420B46
:1058200053EC102BCDE906019DED060B51EC100B4E
:10583000FAF74DFECDE90A01344840690590FAF7C0
:1058400027FF9FED3B0B53EC102BCDE906019DED9F
:10585000060B51EC100BFAF73AFECDE908019DED6D
:105860000A0B53EC102B9DED080B51EC100BFAF7C3
:1058700087FD9FED310B53EC102BCDE90C019DED15
:105880000C0B51EC100BFAF753FF02D89FED2A0BCB
:1058900097E024480068FAF738FF9FED230B53EC9C
:1058A000102BCDE906019DED060B51EC100BFAF71C
:1058B0000EFECDE90A01154840690590FAF7E8FEA9
:1058C0009FED1B0B53EC102BCDE906019DED060B54
:1058D00051EC100BFAF7FBFDCDE908019DED0A0B29
:1058E00053EC102B9DED080B51EC100BFAF748FD13
:1058F00026E000005C0000208C000020A0000020BA
:105900009800002087000020BC0D00207C0F0020A4
:1059100054000020880000209000002000000000BB
:105920000000E03F94000020989999999999C93F07
:105930009A9999999999E93F00000000000028C0C0
:105940009FEDFE0B53EC102BCDE90C019DED0C0BE4
:1059500051EC100BFAF704FF02D29FEDF80B30E088
:10596000F8480068FAF7D1FE1FED110B53EC102B2D
:10597000CDE908019DED080B51EC100BFAF7A7FDDE
:10598000CDE90C01F04840690790FAF781FE1FED60
:10599000180B53EC102BCDE908019DED080B51ECD1
:1059A000100BFAF794FDCDE90A019DED0C0B53ECB9
:1059B000102B9DED0A0B51EC100BFAF7E1FC41ECBA
:1059C000100B8DED0E0B9DED0E0B51EC100BFAF73D
:1059D0007DFE00B2DD494881DD488069DD49096806
:1059E000081A002805DDDA488069DA490968081ACA
:1059F00004E0D7488069D7490968401A0A2832DA92
:105A0000D348C069D4490968081A002805DDD04880
:105A1000C069D1490968081A04E0CD48C069CE4977
:105A20000968401A0A281EDACC480088B0F5FA6FD7
:105A300011DACA48008800EE100AB8EE400AC848D9
:105A4000D0ED000A30EE200ABCEEC00A10EE100ABB
:105A5000C249088007E00020C0490880C14800789A
:105A6000401CC0490870A1E20020B8498881B648AE
:105A70004068BD490968401AB6490860B248806864
:105A8000B9494968401AB4490860B8480068FAF74B
:105A90003CFECDE90601AE48006AAE490968401AED
:105AA0000190FAF7F5FD1FED630B53EC102BCDE9D8
:105AB00002019DED020B51EC100BFAF708FDCDE948
:105AC00004019DED060B53EC102B9DED040B51ECE6
:105AD000100BFAF7F6FC1FED6F0B53EC102BCDE912
